:10040D00011731010C0B0A0DC0F9A4B0999282F8B5
:02041D008090CD
:1002700020900F0518E518C3940440037518013049
:1002800090FD209136E518B4010C050CE50CC394E3
:10029000184003750C17E518B4020C0517E517C3D1
:1002A000943C400375173BE518B4030C050BE50BB4
:1002B000C3943C4003750B3B3091FD209236E5180A
:1002C000B4010C150CE50CD394005003E4F50CE5D7
:1002D00018B4020C1517E517D394005003E4F51772
:1002E000E518B4030C150BE50BD394005003E4F5AB
:0E02F0000B3092FD209306E4F5183093FD22AA
:10000E00E509701175A001E50B75F00A84740D25D4
:10001E00F0F8E6F580E509B4010F75A002E50B7561
:10002E00F00A84240DF8E6F580E509B4020975A0FE
:10003E0004E50A44BFF580E509B4031175A008E58F
:10004E001775F00A84740D25F0F8E6F580E509B40D
:10005E00040F75A010E51775F00A84240DF8E6F567
:10006E0080E509B4050975A020E50A44BFF580E5D1
:10007E0009B4061175A040E50C75F00A84740D25BF
:10008E00F0F8E6F580E509B4070F75A080E50C756C
:0A009E00F00A84240DF8E6F5802234
:1000A800E509701175A001E50B75F00A84740D253A
:1000B800F0F8E6F580E509B4010F75A002E50B75C7
:1000C800F00A84240DF8E6F580E509B4020675A067
:1000D800047580BFE509B4031175A008E51775F02C
:1000E8000A84740D25F0F8E6F580E509B4040F7567
:1000F800A010E51775F00A84240DF8E6F580E509E7
:10010800B4050675A0207580BFE509B4061375A06F
:1001180040E50C75F00A84740D25F0F8E6450AF5FB
:1001280080E509B4071175A080E50C75F00A8424F0
:080138000DF8E6450AF58022EE
:10014000E509701175A001E50B75F00A84740D25A1
:10015000F0F8E6F580E509B4010F75A002E50B752E
:10016000F00A84240DF8E6F580E509B4020675A0CE
:10017000047580BFE509B4031375A008E51775F091
:100180000A84740D25F0F8E6450AF580E509B40403
:100190001175A010E51775F00A84240DF8E6450ADC
:1001A000F580E509B4050675A0207580BFE509B4A2
:1001B000061175A040E50C75F00A84740D25F0F861
:1001C000E6F580E509B4070F75A080E50C75F00A27
:0801D00084240DF8E6F58022FD
:1001D800E509701375A001E50B75F00A84740D2507
:1001E800F0F8E6450AF580E509B4011175A002E5C5
:1001F8000B75F00A84240DF8E6450AF580E509B484
:10020800020675A0047580BFE509B4031175A0083E
:10021800E51775F00A84740D25F0F8E6F580E50910
:10022800B4040F75A010E51775F00A84240DF8E6DC
:10023800F580E509B4050675A0207580BFE509B409
:10024800061175A040E50C75F00A84740D25F0F8C8
:10025800E6F580E509B4070F75A080E50C75F00A8E
:0802680084240DF8E6F5802264
:03000B0002038A63
:10038A00C0E0C0F0C0D075D000C000758CF9758A85
:10039A00280519E519C394FA400875190005086378
:1003AA000AFFE508C394024026750800050BE50B11
:1003BA00943C4005750B000517E517C3943C4005AE
:1003CA00751700050CE50CC394184003750C00E57D
:1003DA0018700312000EE518B401031200A8E518FC
:1003EA00B40203120140E518B403031201D8050947
:1003FA00E509C394084003750900D000D0D0D0F0B5
:03040A00D0E0320D
:10042000758901758CF9758A28D2AFD2A9D28C2230
:0800030012042012027080FBC0
:030000000202FEFB
:0C02FE00787FE4F6D8FD758119020345F5
:10030A00020003E493A3F8E493A34003F68001F206
:10031A0008DFF48029E493A3F85407240CC8C333F4
:10032A00C4540F4420C8834004F456800146F6DFC3
:10033A00E4800B010204081020408090040DE47E42
:10034A00019360BCA3FF543F30E509541FFEE493B8
:10035A00A360010ECF54C025E060A840B8E493A37F
:10036A00FAE493A3F8E493A3C8C582C8CAC583CAAA
:10037A00F0A3C8C582C8CAC583CADFE9DEE780BE62
:01041F0000DC
:00000001FF
